{
  "_format": "hh-sol-artifact-1",
  "contractName": "NFTreeFactory",
  "sourceName": "contracts/NFTreeFactory.sol",
  "abi": [
    {
      "inputs": [
        {
          "internalType": "address",
          "name": "_nftreeAddress",
          "type": "address"
        },
        {
          "internalType": "address",
          "name": "_treasuryAddress",
          "type": "address"
        }
      ],
      "stateMutability": "nonpayable",
      "type": "constructor"
    },
    {
      "anonymous": false,
      "inputs": [
        {
          "indexed": true,
          "internalType": "address",
          "name": "previousOwner",
          "type": "address"
        },
        {
          "indexed": true,
          "internalType": "address",
          "name": "newOwner",
          "type": "address"
        }
      ],
      "name": "OwnershipTransferred",
      "type": "event"
    },
    {
      "inputs": [
        {
          "internalType": "string",
          "name": "_coin",
          "type": "string"
        },
        {
          "internalType": "address",
          "name": "_address",
          "type": "address"
        }
      ],
      "name": "addCoin",
      "outputs": [],
      "stateMutability": "nonpayable",
      "type": "function"
    },
    {
      "inputs": [
        {
          "internalType": "uint256",
          "name": "_level",
          "type": "uint256"
        },
        {
          "internalType": "uint256",
          "name": "_trees",
          "type": "uint256"
        },
        {
          "internalType": "uint256",
          "name": "_cost",
          "type": "uint256"
        },
        {
          "internalType": "string",
          "name": "_tokenURI",
          "type": "string"
        }
      ],
      "name": "addLevel",
      "outputs": [],
      "stateMutability": "nonpayable",
      "type": "function"
    },
    {
      "inputs": [
        {
          "internalType": "uint256",
          "name": "_level",
          "type": "uint256"
        }
      ],
      "name": "getLevel",
      "outputs": [
        {
          "internalType": "uint256",
          "name": "",
          "type": "uint256"
        },
        {
          "internalType": "uint256",
          "name": "",
          "type": "uint256"
        },
        {
          "internalType": "uint256",
          "name": "",
          "type": "uint256"
        },
        {
          "internalType": "uint256",
          "name": "",
          "type": "uint256"
        },
        {
          "internalType": "string",
          "name": "",
          "type": "string"
        }
      ],
      "stateMutability": "view",
      "type": "function"
    },
    {
      "inputs": [],
      "name": "getNFTreeContract",
      "outputs": [
        {
          "internalType": "contract INFTree",
          "name": "",
          "type": "address"
        }
      ],
      "stateMutability": "view",
      "type": "function"
    },
    {
      "inputs": [],
      "name": "getTreasury",
      "outputs": [
        {
          "internalType": "address",
          "name": "",
          "type": "address"
        }
      ],
      "stateMutability": "view",
      "type": "function"
    },
    {
      "inputs": [],
      "name": "getValidCoins",
      "outputs": [
        {
          "internalType": "string[]",
          "name": "",
          "type": "string[]"
        }
      ],
      "stateMutability": "view",
      "type": "function"
    },
    {
      "inputs": [],
      "name": "getValidLevels",
      "outputs": [
        {
          "internalType": "uint256[]",
          "name": "",
          "type": "uint256[]"
        }
      ],
      "stateMutability": "view",
      "type": "function"
    },
    {
      "inputs": [],
      "name": "isLocked",
      "outputs": [
        {
          "internalType": "bool",
          "name": "",
          "type": "bool"
        }
      ],
      "stateMutability": "view",
      "type": "function"
    },
    {
      "inputs": [
        {
          "internalType": "uint256",
          "name": "_tonnes",
          "type": "uint256"
        },
        {
          "internalType": "uint256",
          "name": "_amount",
          "type": "uint256"
        },
        {
          "internalType": "string",
          "name": "_coin",
          "type": "string"
        }
      ],
      "name": "mintNFTree",
      "outputs": [],
      "stateMutability": "nonpayable",
      "type": "function"
    },
    {
      "inputs": [],
      "name": "owner",
      "outputs": [
        {
          "internalType": "address",
          "name": "",
          "type": "address"
        }
      ],
      "stateMutability": "view",
      "type": "function"
    },
    {
      "inputs": [
        {
          "internalType": "string",
          "name": "_coin",
          "type": "string"
        }
      ],
      "name": "removeCoin",
      "outputs": [],
      "stateMutability": "nonpayable",
      "type": "function"
    },
    {
      "inputs": [
        {
          "internalType": "uint256",
          "name": "_level",
          "type": "uint256"
        }
      ],
      "name": "removeLevel",
      "outputs": [],
      "stateMutability": "nonpayable",
      "type": "function"
    },
    {
      "inputs": [],
      "name": "renounceOwnership",
      "outputs": [],
      "stateMutability": "nonpayable",
      "type": "function"
    },
    {
      "inputs": [
        {
          "internalType": "address",
          "name": "_nftreeAddress",
          "type": "address"
        }
      ],
      "name": "setNFTreeContract",
      "outputs": [],
      "stateMutability": "nonpayable",
      "type": "function"
    },
    {
      "inputs": [
        {
          "internalType": "address",
          "name": "_address",
          "type": "address"
        }
      ],
      "name": "setTreasury",
      "outputs": [],
      "stateMutability": "nonpayable",
      "type": "function"
    },
    {
      "inputs": [],
      "name": "toggleLock",
      "outputs": [],
      "stateMutability": "nonpayable",
      "type": "function"
    },
    {
      "inputs": [
        {
          "internalType": "address",
          "name": "newOwner",
          "type": "address"
        }
      ],
      "name": "transferOwnership",
      "outputs": [],
      "stateMutability": "nonpayable",
      "type": "function"
    }
  ],
  "bytecode": "0x60806040523480156200001157600080fd5b50604051620030e2380380620030e28339818101604052810190620000379190620001df565b620000576200004b620000fc60201b60201c565b6200010460201b60201c565b81600160006101000a81548173ffffffffffffffffffffffffffffffffffffffff021916908373ffffffffffffffffffffffffffffffffffffffff16021790555080600260006101000a81548173ffffffffffffffffffffffffffffffffffffffff021916908373ffffffffffffffffffffffffffffffffffffffff1602179055506000600560006101000a81548160ff02191690831515021790555050506200026e565b600033905090565b60008060009054906101000a900473ffffffffffffffffffffffffffffffffffffffff169050816000806101000a81548173ffffffffffffffffffffffffffffffffffffffff021916908373ffffffffffffffffffffffffffffffffffffffff1602179055508173ffffffffffffffffffffffffffffffffffffffff168173ffffffffffffffffffffffffffffffffffffffff167f8be0079c531659141344cd1fd0a4f28419497f9722a3daafe3b4186f6b6457e060405160405180910390a35050565b600081519050620001d98162000254565b92915050565b60008060408385031215620001f357600080fd5b60006200020385828601620001c8565b92505060206200021685828601620001c8565b9150509250929050565b60006200022d8262000234565b9050919050565b600073ffffffffffffffffffffffffffffffffffffffff82169050919050565b6200025f8162000220565b81146200026b57600080fd5b50565b612e64806200027e6000396000f3fe608060405234801561001057600080fd5b506004361061010b5760003560e01c80639a4c4517116100a2578063da4bf63911610071578063da4bf6391461026e578063f0f442601461028c578063f2fde38b146102a8578063fc7a7461146102c4578063ff9413d8146102e25761010b565b80639a4c4517146101fc578063a4e2d63414610218578063a52be41014610236578063c392079f146102525761010b565b806371b7270c116100de57806371b7270c146101725780637c23d1cb1461018e57806386481d40146101aa5780638da5cb5b146101de5761010b565b80631d5f671d146101105780632ff780161461012e5780633b19e84a1461014a578063715018a614610168575b600080fd5b6101186102ec565b60405161012591906125d4565b60405180910390f35b61014860048036038101906101439190611f38565b61034c565b005b610152610969565b60405161015f91906124d8565b60405180910390f35b610170610a0f565b005b61018c60048036038101906101879190611e92565b610a97565b005b6101a860048036038101906101a39190611ee6565b610c78565b005b6101c460048036038101906101bf9190611ee6565b610f1a565b6040516101d595949392919061278c565b60405180910390f35b6101e6611096565b6040516101f391906124d8565b60405180910390f35b61021660048036038101906102119190611f9f565b6110bf565b005b61022061123f565b60405161022d91906125f6565b60405180910390f35b610250600480360381019061024b9190611dff565b611252565b005b61026c60048036038101906102679190611e51565b611296565b005b6102766115ab565b60405161028391906125b2565b60405180910390f35b6102a660048036038101906102a19190611dff565b611684565b005b6102c260048036038101906102bd9190611dff565b611744565b005b6102cc61183c565b6040516102d99190612611565b60405180910390f35b6102ea611866565b005b6060610347600380548060200260200160405190810160405280929190818152602001828054801561033d57602002820191906000526020600020905b815481526020019060010190808311610329575b505050505061190e565b905090565b600560009054906101000a900460ff161561039c576040517f08c379a00000000000000000000000000000000000000000000000000000000081526004016103939061262c565b60405180910390fd5b600073ffffffffffffffffffffffffffffffffffffffff163373ffffffffffffffffffffffffffffffffffffffff161415801561040557503073ffffffffffffffffffffffffffffffffffffffff163373ffffffffffffffffffffffffffffffffffffffff1614155b610444576040517f08c379a000000000000000000000000000000000000000000000000000000000815260040161043b906126ec565b60405180910390fd5b6006600084815260200190815260200160002060000160009054906101000a900460ff166104a7576040517f08c379a000000000000000000000000000000000000000000000000000000000815260040161049e9061272c565b60405180910390fd5b6007816040516104b791906124aa565b908152602001604051809103902060000160009054906101000a900460ff16610515576040517f08c379a000000000000000000000000000000000000000000000000000000000815260040161050c906126cc565b60405180910390fd5b600660008481526020019081526020016000206001015482101561056e576040517f08c379a00000000000000000000000000000000000000000000000000000000081526004016105659061268c565b60405180910390fd5b8160078260405161057f91906124aa565b908152602001604051809103902060000160019054906101000a900473ffffffffffffffffffffffffffffffffffffffff1673ffffffffffffffffffffffffffffffffffffffff166370a08231336040518263ffffffff1660e01b81526004016105e991906124d8565b60206040518083038186803b15801561060157600080fd5b505afa158015610615573d6000803e3d6000fd5b505050506040513d601f19601f820116820180604052508101906106399190611f0f565b101561067a576040517f08c379a00000000000000000000000000000000000000000000000000000000081526004016106719061274c565b60405180910390fd5b8160078260405161068b91906124aa565b908152602001604051809103902060000160019054906101000a900473ffffffffffffffffffffffffffffffffffffffff1673ffffffffffffffffffffffffffffffffffffffff1663dd62ed3e33306040518363ffffffff1660e01b81526004016106f79291906124f3565b60206040518083038186803b15801561070f57600080fd5b505afa158015610723573d6000803e3d6000fd5b505050506040513d601f19601f820116820180604052508101906107479190611f0f565b1015610788576040517f08c379a000000000000000000000000000000000000000000000000000000000815260040161077f9061276c565b60405180910390fd5b60078160405161079891906124aa565b908152602001604051809103902060000160019054906101000a900473ffffffffffffffffffffffffffffffffffffffff1673ffffffffffffffffffffffffffffffffffffffff166323b872dd33600260009054906101000a900473ffffffffffffffffffffffffffffffffffffffff16670de0b6b3a76400008661081d9190612951565b6040518463ffffffff1660e01b815260040161083b9392919061251c565b602060405180830381600087803b15801561085557600080fd5b505af1158015610869573d6000803e3d6000fd5b505050506040513d601f19601f8201168201806040525081019061088d9190611e28565b50600160009054906101000a900473ffffffffffffffffffffffffffffffffffffffff1673ffffffffffffffffffffffffffffffffffffffff166321e07abd336006600087815260200190815260200160002060050186876040518563ffffffff1660e01b81526004016109049493929190612553565b600060405180830381600087803b15801561091e57600080fd5b505af1158015610932573d6000803e3d6000fd5b50505050600160066000858152602001908152602001600020600401600082825461095d91906128fb565b92505081905550505050565b6000610973611b07565b73ffffffffffffffffffffffffffffffffffffffff16610991611096565b73ffffffffffffffffffffffffffffffffffffffff16146109e7576040517f08c379a00000000000000000000000000000000000000000000000000000000081526004016109de9061270c565b60405180910390fd5b600260009054906101000a900473ffffffffffffffffffffffffffffffffffffffff16905090565b610a17611b07565b73ffffffffffffffffffffffffffffffffffffffff16610a35611096565b73ffffffffffffffffffffffffffffffffffffffff1614610a8b576040517f08c379a0000000000000000000000000000000000000000000000000000000008152600401610a829061270c565b60405180910390fd5b610a956000611b0f565b565b610a9f611b07565b73ffffffffffffffffffffffffffffffffffffffff16610abd611096565b73ffffffffffffffffffffffffffffffffffffffff1614610b13576040517f08c379a0000000000000000000000000000000000000000000000000000000008152600401610b0a9061270c565b60405180910390fd5b600782604051610b2391906124aa565b908152602001604051809103902060000160009054906101000a900460ff1615610b82576040517f08c379a0000000000000000000000000000000000000000000000000000000008152600401610b79906126ac565b60405180910390fd5b600482908060018154018082558091505060019003906000526020600020016000909190919091509080519060200190610bbd929190611bd3565b5060405180604001604052806001151581526020018273ffffffffffffffffffffffffffffffffffffffff16815250600783604051610bfc91906124aa565b908152602001604051809103902060008201518160000160006101000a81548160ff02191690831515021790555060208201518160000160016101000a81548173ffffffffffffffffffffffffffffffffffffffff021916908373ffffffffffffffffffffffffffffffffffffffff1602179055509050505050565b610c80611b07565b73ffffffffffffffffffffffffffffffffffffffff16610c9e611096565b73ffffffffffffffffffffffffffffffffffffffff1614610cf4576040517f08c379a0000000000000000000000000000000000000000000000000000000008152600401610ceb9061270c565b60405180910390fd5b6006600082815260200190815260200160002060000160009054906101000a900460ff16610d57576040517f08c379a0000000000000000000000000000000000000000000000000000000008152600401610d4e9061272c565b60405180910390fd5b600080600090505b600380549050811015610dcf578260038281548110610da7577f4e487b7100000000000000000000000000000000000000000000000000000000600052603260045260246000fd5b90600052602060002001541415610dbc578091505b8080610dc790612af0565b915050610d5f565b5060036001600380549050610de491906129ab565b81548110610e1b577f4e487b7100000000000000000000000000000000000000000000000000000000600052603260045260246000fd5b906000526020600020015460038281548110610e60577f4e487b7100000000000000000000000000000000000000000000000000000000600052603260045260246000fd5b90600052602060002001819055506003805480610ea6577f4e487b7100000000000000000000000000000000000000000000000000000000600052603160045260246000fd5b6001900381819060005260206000200160009055905560066000838152602001908152602001600020600080820160006101000a81549060ff02191690556001820160009055600282016000905560038201600090556004820160009055600582016000610f149190611c59565b50505050565b60008060008060606006600087815260200190815260200160002060000160009054906101000a900460ff16610f85576040517f08c379a0000000000000000000000000000000000000000000000000000000008152600401610f7c9061266c565b60405180910390fd5b600660008781526020019081526020016000206002015460066000888152602001908152602001600020600301546006600089815260200190815260200160002060010154600660008a815260200190815260200160002060040154600660008b815260200190815260200160002060050180805461100390612a8d565b80601f016020809104026020016040519081016040528092919081815260200182805461102f90612a8d565b801561107c5780601f106110515761010080835404028352916020019161107c565b820191906000526020600020905b81548152906001019060200180831161105f57829003601f168201915b505050505090509450945094509450945091939590929450565b60008060009054906101000a900473ffffffffffffffffffffffffffffffffffffffff16905090565b6110c7611b07565b73ffffffffffffffffffffffffffffffffffffffff166110e5611096565b73ffffffffffffffffffffffffffffffffffffffff161461113b576040517f08c379a00000000000000000000000000000000000000000000000000000000081526004016111329061270c565b60405180910390fd5b6006600085815260200190815260200160002060000160009054906101000a900460ff1661118d5760038490806001815401808255809150506001900390600052602060002001600090919091909150555b6040518060c0016040528060011515815260200183815260200185815260200184815260200160008152602001828152506006600086815260200190815260200160002060008201518160000160006101000a81548160ff0219169083151502179055506020820151816001015560408201518160020155606082015181600301556080820151816004015560a0820151816005019080519060200190611235929190611bd3565b5090505050505050565b600560009054906101000a900460ff1681565b80600160006101000a81548173ffffffffffffffffffffffffffffffffffffffff021916908373ffffffffffffffffffffffffffffffffffffffff16021790555050565b61129e611b07565b73ffffffffffffffffffffffffffffffffffffffff166112bc611096565b73ffffffffffffffffffffffffffffffffffffffff1614611312576040517f08c379a00000000000000000000000000000000000000000000000000000000081526004016113099061270c565b60405180910390fd5b60078160405161132291906124aa565b908152602001604051809103902060000160009054906101000a900460ff16611380576040517f08c379a0000000000000000000000000000000000000000000000000000000008152600401611377906126cc565b60405180910390fd5b600080600090505b60048054905081101561144357826040516020016113a691906124aa565b60405160208183030381529060405280519060200120600482815481106113f6577f4e487b7100000000000000000000000000000000000000000000000000000000600052603260045260246000fd5b9060005260206000200160405160200161141091906124c1565b604051602081830303815290604052805190602001201415611430578091505b808061143b90612af0565b915050611388565b506004600160048054905061145891906129ab565b8154811061148f577f4e487b7100000000000000000000000000000000000000000000000000000000600052603260045260246000fd5b90600052602060002001600482815481106114d3577f4e487b7100000000000000000000000000000000000000000000000000000000600052603260045260246000fd5b906000526020600020019080546114e990612a8d565b6114f4929190611c99565b50600480548061152d577f4e487b7100000000000000000000000000000000000000000000000000000000600052603160045260246000fd5b6001900381819060005260206000200160006115499190611c59565b905560078260405161155b91906124aa565b9081526020016040518091039020600080820160006101000a81549060ff02191690556000820160016101000a81549073ffffffffffffffffffffffffffffffffffffffff021916905550505050565b60606004805480602002602001604051908101604052809291908181526020016000905b8282101561167b5783829060005260206000200180546115ee90612a8d565b80601f016020809104026020016040519081016040528092919081815260200182805461161a90612a8d565b80156116675780601f1061163c57610100808354040283529160200191611667565b820191906000526020600020905b81548152906001019060200180831161164a57829003601f168201915b5050505050815260200190600101906115cf565b50505050905090565b61168c611b07565b73ffffffffffffffffffffffffffffffffffffffff166116aa611096565b73ffffffffffffffffffffffffffffffffffffffff1614611700576040517f08c379a00000000000000000000000000000000000000000000000000000000081526004016116f79061270c565b60405180910390fd5b80600260006101000a81548173ffffffffffffffffffffffffffffffffffffffff021916908373ffffffffffffffffffffffffffffffffffffffff16021790555050565b61174c611b07565b73ffffffffffffffffffffffffffffffffffffffff1661176a611096565b73ffffffffffffffffffffffffffffffffffffffff16146117c0576040517f08c379a00000000000000000000000000000000000000000000000000000000081526004016117b79061270c565b60405180910390fd5b600073ffffffffffffffffffffffffffffffffffffffff168173ffffffffffffffffffffffffffffffffffffffff161415611830576040517f08c379a00000000000000000000000000000000000000000000000000000000081526004016118279061264c565b60405180910390fd5b61183981611b0f565b50565b6000600160009054906101000a900473ffffffffffffffffffffffffffffffffffffffff16905090565b61186e611b07565b73ffffffffffffffffffffffffffffffffffffffff1661188c611096565b73ffffffffffffffffffffffffffffffffffffffff16146118e2576040517f08c379a00000000000000000000000000000000000000000000000000000000081526004016118d99061270c565b60405180910390fd5b600560009054906101000a900460ff1615600560006101000a81548160ff021916908315150217905550565b606060008251905060005b81811015611afd57600060018261193091906128fb565b90505b82811015611ae957848181518110611974577f4e487b7100000000000000000000000000000000000000000000000000000000600052603260045260246000fd5b60200260200101518583815181106119b5577f4e487b7100000000000000000000000000000000000000000000000000000000600052603260045260246000fd5b60200260200101511115611ad65760008583815181106119fe577f4e487b7100000000000000000000000000000000000000000000000000000000600052603260045260246000fd5b60200260200101519050858281518110611a41577f4e487b7100000000000000000000000000000000000000000000000000000000600052603260045260246000fd5b6020026020010151868481518110611a82577f4e487b7100000000000000000000000000000000000000000000000000000000600052603260045260246000fd5b60200260200101818152505080868381518110611ac8577f4e487b7100000000000000000000000000000000000000000000000000000000600052603260045260246000fd5b602002602001018181525050505b8080611ae190612af0565b915050611933565b508080611af590612af0565b915050611919565b5082915050919050565b600033905090565b60008060009054906101000a900473ffffffffffffffffffffffffffffffffffffffff169050816000806101000a81548173ffffffffffffffffffffffffffffffffffffffff021916908373ffffffffffffffffffffffffffffffffffffffff1602179055508173ffffffffffffffffffffffffffffffffffffffff168173ffffffffffffffffffffffffffffffffffffffff167f8be0079c531659141344cd1fd0a4f28419497f9722a3daafe3b4186f6b6457e060405160405180910390a35050565b828054611bdf90612a8d565b90600052602060002090601f016020900481019282611c015760008555611c48565b82601f10611c1a57805160ff1916838001178555611c48565b82800160010185558215611c48579182015b82811115611c47578251825591602001919060010190611c2c565b5b509050611c559190611d26565b5090565b508054611c6590612a8d565b6000825580601f10611c775750611c96565b601f016020900490600052602060002090810190611c959190611d26565b5b50565b828054611ca590612a8d565b90600052602060002090601f016020900481019282611cc75760008555611d15565b82601f10611cd85780548555611d15565b82800160010185558215611d1557600052602060002091601f016020900482015b82811115611d14578254825591600101919060010190611cf9565b5b509050611d229190611d26565b5090565b5b80821115611d3f576000816000905550600101611d27565b5090565b6000611d56611d518461280b565b6127e6565b905082815260208101848484011115611d6e57600080fd5b611d79848285612a4b565b509392505050565b600081359050611d9081612de9565b92915050565b600081519050611da581612e00565b92915050565b600082601f830112611dbc57600080fd5b8135611dcc848260208601611d43565b91505092915050565b600081359050611de481612e17565b92915050565b600081519050611df981612e17565b92915050565b600060208284031215611e1157600080fd5b6000611e1f84828501611d81565b91505092915050565b600060208284031215611e3a57600080fd5b6000611e4884828501611d96565b91505092915050565b600060208284031215611e6357600080fd5b600082013567ffffffffffffffff811115611e7d57600080fd5b611e8984828501611dab565b91505092915050565b60008060408385031215611ea557600080fd5b600083013567ffffffffffffffff811115611ebf57600080fd5b611ecb85828601611dab565b9250506020611edc85828601611d81565b9150509250929050565b600060208284031215611ef857600080fd5b6000611f0684828501611dd5565b91505092915050565b600060208284031215611f2157600080fd5b6000611f2f84828501611dea565b91505092915050565b600080600060608486031215611f4d57600080fd5b6000611f5b86828701611dd5565b9350506020611f6c86828701611dd5565b925050604084013567ffffffffffffffff811115611f8957600080fd5b611f9586828701611dab565b9150509250925092565b60008060008060808587031215611fb557600080fd5b6000611fc387828801611dd5565b9450506020611fd487828801611dd5565b9350506040611fe587828801611dd5565b925050606085013567ffffffffffffffff81111561200257600080fd5b61200e87828801611dab565b91505092959194509250565b60006120268383612146565b905092915050565b600061203a838361248c565b60208301905092915050565b61204f816129df565b82525050565b600061206082612871565b61206a81856128ac565b93508360208202850161207c8561283c565b8060005b858110156120b85784840389528151612099858261201a565b94506120a483612892565b925060208a01995050600181019050612080565b50829750879550505050505092915050565b60006120d58261287c565b6120df81856128bd565b93506120ea8361284c565b8060005b8381101561211b578151612102888261202e565b975061210d8361289f565b9250506001810190506120ee565b5085935050505092915050565b612131816129f1565b82525050565b61214081612a27565b82525050565b600061215182612887565b61215b81856128ce565b935061216b818560208601612a5a565b61217481612bc6565b840191505092915050565b600061218a82612887565b61219481856128df565b93506121a4818560208601612a5a565b6121ad81612bc6565b840191505092915050565b60006121c382612887565b6121cd81856128f0565b93506121dd818560208601612a5a565b80840191505092915050565b600081546121f681612a8d565b61220081866128df565b9450600182166000811461221b576001811461222d57612260565b60ff1983168652602086019350612260565b6122368561285c565b60005b8381101561225857815481890152600182019150602081019050612239565b808801955050505b50505092915050565b6000815461227681612a8d565b61228081866128f0565b9450600182166000811461229b57600181146122ac576122df565b60ff198316865281860193506122df565b6122b58561285c565b60005b838110156122d7578154818901526001820191506020810190506122b8565b838801955050505b50505092915050565b60006122f56012836128df565b915061230082612bd7565b602082019050919050565b60006123186026836128df565b915061232382612c00565b604082019050919050565b600061233b6011836128df565b915061234682612c4f565b602082019050919050565b600061235e6011836128df565b915061236982612c78565b602082019050919050565b60006123816015836128df565b915061238c82612ca1565b602082019050919050565b60006123a46007836128df565b91506123af82612cca565b602082019050919050565b60006123c76011836128df565b91506123d282612cf3565b602082019050919050565b60006123ea601a836128df565b91506123f582612d1c565b602082019050919050565b600061240d6020836128df565b915061241882612d45565b602082019050919050565b60006124306012836128df565b915061243b82612d6e565b602082019050919050565b60006124536013836128df565b915061245e82612d97565b602082019050919050565b60006124766015836128df565b915061248182612dc0565b602082019050919050565b61249581612a1d565b82525050565b6124a481612a1d565b82525050565b60006124b682846121b8565b915081905092915050565b60006124cd8284612269565b915081905092915050565b60006020820190506124ed6000830184612046565b92915050565b60006040820190506125086000830185612046565b6125156020830184612046565b9392505050565b60006060820190506125316000830186612046565b61253e6020830185612046565b61254b604083018461249b565b949350505050565b600060a0820190506125686000830187612046565b818103602083015261257a81866121e9565b9050612589604083018561249b565b612596606083018461249b565b81810360808301526125a781612397565b905095945050505050565b600060208201905081810360008301526125cc8184612055565b905092915050565b600060208201905081810360008301526125ee81846120ca565b905092915050565b600060208201905061260b6000830184612128565b92915050565b60006020820190506126266000830184612137565b92915050565b60006020820190508181036000830152612645816122e8565b9050919050565b600060208201905081810360008301526126658161230b565b9050919050565b600060208201905081810360008301526126858161232e565b9050919050565b600060208201905081810360008301526126a581612351565b9050919050565b600060208201905081810360008301526126c581612374565b9050919050565b600060208201905081810360008301526126e5816123ba565b9050919050565b60006020820190508181036000830152612705816123dd565b9050919050565b6000602082019050818103600083015261272581612400565b9050919050565b6000602082019050818103600083015261274581612423565b9050919050565b6000602082019050818103600083015261276581612446565b9050919050565b6000602082019050818103600083015261278581612469565b9050919050565b600060a0820190506127a1600083018861249b565b6127ae602083018761249b565b6127bb604083018661249b565b6127c8606083018561249b565b81810360808301526127da818461217f565b90509695505050505050565b60006127f0612801565b90506127fc8282612abf565b919050565b6000604051905090565b600067ffffffffffffffff82111561282657612825612b97565b5b61282f82612bc6565b9050602081019050919050565b6000819050602082019050919050565b6000819050602082019050919050565b60008190508160005260206000209050919050565b600081519050919050565b600081519050919050565b600081519050919050565b6000602082019050919050565b6000602082019050919050565b600082825260208201905092915050565b600082825260208201905092915050565b600082825260208201905092915050565b600082825260208201905092915050565b600081905092915050565b600061290682612a1d565b915061291183612a1d565b9250827fffffffffffffffffffffffffffffffffffffffffffffffffffffffffffffffff0382111561294657612945612b39565b5b828201905092915050565b600061295c82612a1d565b915061296783612a1d565b9250817fffffffffffffffffffffffffffffffffffffffffffffffffffffffffffffffff04831182151516156129a05761299f612b39565b5b828202905092915050565b60006129b682612a1d565b91506129c183612a1d565b9250828210156129d4576129d3612b39565b5b828203905092915050565b60006129ea826129fd565b9050919050565b60008115159050919050565b600073ffffffffffffffffffffffffffffffffffffffff82169050919050565b6000819050919050565b6000612a3282612a39565b9050919050565b6000612a44826129fd565b9050919050565b82818337600083830152505050565b60005b83811015612a78578082015181840152602081019050612a5d565b83811115612a87576000848401525b50505050565b60006002820490506001821680612aa557607f821691505b60208210811415612ab957612ab8612b68565b5b50919050565b612ac882612bc6565b810181811067ffffffffffffffff82111715612ae757612ae6612b97565b5b80604052505050565b6000612afb82612a1d565b91507fffffffffffffffffffffffffffffffffffffffffffffffffffffffffffffffff821415612b2e57612b2d612b39565b5b600182019050919050565b7f4e487b7100000000000000000000000000000000000000000000000000000000600052601160045260246000fd5b7f4e487b7100000000000000000000000000000000000000000000000000000000600052602260045260246000fd5b7f4e487b7100000000000000000000000000000000000000000000000000000000600052604160045260246000fd5b6000601f19601f8301169050919050565b7f4d696e74696e67206973206c6f636b65642e0000000000000000000000000000600082015250565b7f4f776e61626c653a206e6577206f776e657220697320746865207a65726f206160008201527f6464726573730000000000000000000000000000000000000000000000000000602082015250565b7f4e6f7420612076616c6964206c6576656c000000000000000000000000000000600082015250565b7f4e6f7420656e6f7567682076616c75652e000000000000000000000000000000600082015250565b7f416c726561647920612076616c696420636f696e2e0000000000000000000000600082015250565b7f47656e6573697300000000000000000000000000000000000000000000000000600082015250565b7f4e6f7420612076616c696420636f696e2e000000000000000000000000000000600082015250565b7f53656e64696e672066726f6d207a65726f20616464726573732e000000000000600082015250565b7f4f776e61626c653a2063616c6c6572206973206e6f7420746865206f776e6572600082015250565b7f4e6f7420612076616c6964206c6576656c2e0000000000000000000000000000600082015250565b7f4e6f7420656e6f7567682062616c616e63652e00000000000000000000000000600082015250565b7f4e6f7420656e6f75676820616c6c6f77616e63652e0000000000000000000000600082015250565b612df2816129df565b8114612dfd57600080fd5b50565b612e09816129f1565b8114612e1457600080fd5b50565b612e2081612a1d565b8114612e2b57600080fd5b5056fea264697066735822122067f54a40cfc0f5ea7ac857c9cc48600553260d23d55fff0cb205bee3bf56311164736f6c63430008040033",
  "linkReferences": {},
  "deployedLinkReferences": {}
}