{
  "_format": "hh-sol-artifact-1",
  "contractName": "NFTree",
  "sourceName": "contracts/NFTree.sol",
  "abi": [
    {
      "inputs": [],
      "stateMutability": "nonpayable",
      "type": "constructor"
    },
    {
      "anonymous": false,
      "inputs": [
        {
          "indexed": true,
          "internalType": "address",
          "name": "owner",
          "type": "address"
        },
        {
          "indexed": true,
          "internalType": "address",
          "name": "approved",
          "type": "address"
        },
        {
          "indexed": true,
          "internalType": "uint256",
          "name": "tokenId",
          "type": "uint256"
        }
      ],
      "name": "Approval",
      "type": "event"
    },
    {
      "anonymous": false,
      "inputs": [
        {
          "indexed": true,
          "internalType": "address",
          "name": "owner",
          "type": "address"
        },
        {
          "indexed": true,
          "internalType": "address",
          "name": "operator",
          "type": "address"
        },
        {
          "indexed": false,
          "internalType": "bool",
          "name": "approved",
          "type": "bool"
        }
      ],
      "name": "ApprovalForAll",
      "type": "event"
    },
    {
      "anonymous": false,
      "inputs": [
        {
          "indexed": false,
          "internalType": "address",
          "name": "_recipient",
          "type": "address"
        },
        {
          "indexed": false,
          "internalType": "uint256",
          "name": "_tokenId",
          "type": "uint256"
        },
        {
          "indexed": false,
          "internalType": "uint256",
          "name": "_carbonOffset",
          "type": "uint256"
        },
        {
          "indexed": false,
          "internalType": "uint256",
          "name": "_treesPlanted",
          "type": "uint256"
        },
        {
          "indexed": false,
          "internalType": "string",
          "name": "_collection",
          "type": "string"
        }
      ],
      "name": "Mint",
      "type": "event"
    },
    {
      "anonymous": false,
      "inputs": [
        {
          "indexed": true,
          "internalType": "address",
          "name": "previousOwner",
          "type": "address"
        },
        {
          "indexed": true,
          "internalType": "address",
          "name": "newOwner",
          "type": "address"
        }
      ],
      "name": "OwnershipTransferred",
      "type": "event"
    },
    {
      "anonymous": false,
      "inputs": [
        {
          "indexed": true,
          "internalType": "address",
          "name": "from",
          "type": "address"
        },
        {
          "indexed": true,
          "internalType": "address",
          "name": "to",
          "type": "address"
        },
        {
          "indexed": true,
          "internalType": "uint256",
          "name": "tokenId",
          "type": "uint256"
        }
      ],
      "name": "Transfer",
      "type": "event"
    },
    {
      "inputs": [
        {
          "internalType": "address",
          "name": "_contractAddress",
          "type": "address"
        }
      ],
      "name": "addWhitelist",
      "outputs": [],
      "stateMutability": "nonpayable",
      "type": "function"
    },
    {
      "inputs": [
        {
          "internalType": "address",
          "name": "to",
          "type": "address"
        },
        {
          "internalType": "uint256",
          "name": "tokenId",
          "type": "uint256"
        }
      ],
      "name": "approve",
      "outputs": [],
      "stateMutability": "nonpayable",
      "type": "function"
    },
    {
      "inputs": [
        {
          "internalType": "address",
          "name": "owner",
          "type": "address"
        }
      ],
      "name": "balanceOf",
      "outputs": [
        {
          "internalType": "uint256",
          "name": "",
          "type": "uint256"
        }
      ],
      "stateMutability": "view",
      "type": "function"
    },
    {
      "inputs": [],
      "name": "carbonOffset",
      "outputs": [
        {
          "internalType": "uint256",
          "name": "",
          "type": "uint256"
        }
      ],
      "stateMutability": "view",
      "type": "function"
    },
    {
      "inputs": [
        {
          "internalType": "uint256",
          "name": "tokenId",
          "type": "uint256"
        }
      ],
      "name": "getApproved",
      "outputs": [
        {
          "internalType": "address",
          "name": "",
          "type": "address"
        }
      ],
      "stateMutability": "view",
      "type": "function"
    },
    {
      "inputs": [],
      "name": "getNextTokenId",
      "outputs": [
        {
          "internalType": "uint256",
          "name": "",
          "type": "uint256"
        }
      ],
      "stateMutability": "view",
      "type": "function"
    },
    {
      "inputs": [],
      "name": "getValidWhitelists",
      "outputs": [
        {
          "internalType": "address[]",
          "name": "",
          "type": "address[]"
        }
      ],
      "stateMutability": "view",
      "type": "function"
    },
    {
      "inputs": [
        {
          "internalType": "address",
          "name": "owner",
          "type": "address"
        },
        {
          "internalType": "address",
          "name": "operator",
          "type": "address"
        }
      ],
      "name": "isApprovedForAll",
      "outputs": [
        {
          "internalType": "bool",
          "name": "",
          "type": "bool"
        }
      ],
      "stateMutability": "view",
      "type": "function"
    },
    {
      "inputs": [
        {
          "internalType": "address",
          "name": "_recipient",
          "type": "address"
        },
        {
          "internalType": "string",
          "name": "_tokenURI",
          "type": "string"
        },
        {
          "internalType": "uint256",
          "name": "_carbonOffset",
          "type": "uint256"
        },
        {
          "internalType": "uint256",
          "name": "_treesPlanted",
          "type": "uint256"
        },
        {
          "internalType": "string",
          "name": "_collection",
          "type": "string"
        }
      ],
      "name": "mintNFTree",
      "outputs": [],
      "stateMutability": "nonpayable",
      "type": "function"
    },
    {
      "inputs": [],
      "name": "name",
      "outputs": [
        {
          "internalType": "string",
          "name": "",
          "type": "string"
        }
      ],
      "stateMutability": "view",
      "type": "function"
    },
    {
      "inputs": [],
      "name": "owner",
      "outputs": [
        {
          "internalType": "address",
          "name": "",
          "type": "address"
        }
      ],
      "stateMutability": "view",
      "type": "function"
    },
    {
      "inputs": [
        {
          "internalType": "uint256",
          "name": "tokenId",
          "type": "uint256"
        }
      ],
      "name": "ownerOf",
      "outputs": [
        {
          "internalType": "address",
          "name": "",
          "type": "address"
        }
      ],
      "stateMutability": "view",
      "type": "function"
    },
    {
      "inputs": [
        {
          "internalType": "address",
          "name": "_contractAddress",
          "type": "address"
        }
      ],
      "name": "removeWhitelist",
      "outputs": [],
      "stateMutability": "nonpayable",
      "type": "function"
    },
    {
      "inputs": [],
      "name": "renounceOwnership",
      "outputs": [],
      "stateMutability": "nonpayable",
      "type": "function"
    },
    {
      "inputs": [
        {
          "internalType": "address",
          "name": "from",
          "type": "address"
        },
        {
          "internalType": "address",
          "name": "to",
          "type": "address"
        },
        {
          "internalType": "uint256",
          "name": "tokenId",
          "type": "uint256"
        }
      ],
      "name": "safeTransferFrom",
      "outputs": [],
      "stateMutability": "nonpayable",
      "type": "function"
    },
    {
      "inputs": [
        {
          "internalType": "address",
          "name": "from",
          "type": "address"
        },
        {
          "internalType": "address",
          "name": "to",
          "type": "address"
        },
        {
          "internalType": "uint256",
          "name": "tokenId",
          "type": "uint256"
        },
        {
          "internalType": "bytes",
          "name": "_data",
          "type": "bytes"
        }
      ],
      "name": "safeTransferFrom",
      "outputs": [],
      "stateMutability": "nonpayable",
      "type": "function"
    },
    {
      "inputs": [
        {
          "internalType": "address",
          "name": "operator",
          "type": "address"
        },
        {
          "internalType": "bool",
          "name": "approved",
          "type": "bool"
        }
      ],
      "name": "setApprovalForAll",
      "outputs": [],
      "stateMutability": "nonpayable",
      "type": "function"
    },
    {
      "inputs": [
        {
          "internalType": "bytes4",
          "name": "interfaceId",
          "type": "bytes4"
        }
      ],
      "name": "supportsInterface",
      "outputs": [
        {
          "internalType": "bool",
          "name": "",
          "type": "bool"
        }
      ],
      "stateMutability": "view",
      "type": "function"
    },
    {
      "inputs": [],
      "name": "symbol",
      "outputs": [
        {
          "internalType": "string",
          "name": "",
          "type": "string"
        }
      ],
      "stateMutability": "view",
      "type": "function"
    },
    {
      "inputs": [
        {
          "internalType": "uint256",
          "name": "tokenId",
          "type": "uint256"
        }
      ],
      "name": "tokenURI",
      "outputs": [
        {
          "internalType": "string",
          "name": "",
          "type": "string"
        }
      ],
      "stateMutability": "view",
      "type": "function"
    },
    {
      "inputs": [
        {
          "internalType": "address",
          "name": "_owner",
          "type": "address"
        }
      ],
      "name": "tokensOfOwner",
      "outputs": [
        {
          "internalType": "uint256[]",
          "name": "",
          "type": "uint256[]"
        }
      ],
      "stateMutability": "view",
      "type": "function"
    },
    {
      "inputs": [
        {
          "internalType": "address",
          "name": "from",
          "type": "address"
        },
        {
          "internalType": "address",
          "name": "to",
          "type": "address"
        },
        {
          "internalType": "uint256",
          "name": "tokenId",
          "type": "uint256"
        }
      ],
      "name": "transferFrom",
      "outputs": [],
      "stateMutability": "nonpayable",
      "type": "function"
    },
    {
      "inputs": [
        {
          "internalType": "address",
          "name": "newOwner",
          "type": "address"
        }
      ],
      "name": "transferOwnership",
      "outputs": [],
      "stateMutability": "nonpayable",
      "type": "function"
    },
    {
      "inputs": [],
      "name": "treesPlanted",
      "outputs": [
        {
          "internalType": "uint256",
          "name": "",
          "type": "uint256"
        }
      ],
      "stateMutability": "view",
      "type": "function"
    }
  ],
  "bytecode": "0x60806040523480156200001157600080fd5b506040518060400160405280600681526020017f4e465472656500000000000000000000000000000000000000000000000000008152506040518060400160405280600481526020017f54524545000000000000000000000000000000000000000000000000000000008152506200009e62000092620000f060201b60201c565b620000f860201b60201c565b8160019080519060200190620000b6929190620001bc565b508060029080519060200190620000cf929190620001bc565b505050600160088190555060006009819055506000600a81905550620002d1565b600033905090565b60008060009054906101000a900473ffffffffffffffffffffffffffffffffffffffff169050816000806101000a81548173ffffffffffffffffffffffffffffffffffffffff021916908373ffffffffffffffffffffffffffffffffffffffff1602179055508173ffffffffffffffffffffffffffffffffffffffff168173ffffffffffffffffffffffffffffffffffffffff167f8be0079c531659141344cd1fd0a4f28419497f9722a3daafe3b4186f6b6457e060405160405180910390a35050565b828054620001ca906200026c565b90600052602060002090601f016020900481019282620001ee57600085556200023a565b82601f106200020957805160ff19168380011785556200023a565b828001600101855582156200023a579182015b82811115620002395782518255916020019190600101906200021c565b5b5090506200024991906200024d565b5090565b5b80821115620002685760008160009055506001016200024e565b5090565b600060028204905060018216806200028557607f821691505b602082108114156200029c576200029b620002a2565b5b50919050565b7f4e487b7100000000000000000000000000000000000000000000000000000000600052602260045260246000fd5b613ea680620002e16000396000f3fe608060405234801561001057600080fd5b50600436106101585760003560e01c80638462151c116100c3578063c87b56dd1161007c578063c87b56dd146103b1578063caa0f92a146103e1578063e985e9c5146103ff578063f2fde38b1461042f578063f80f5dd51461044b578063fbbb7d8b1461046757610158565b80638462151c146102ef5780638da5cb5b1461031f57806395d89b411461033d578063a22cb4651461035b578063b88d4fde14610377578063c75e31d61461039357610158565b806342842e0e1161011557806342842e0e1461022f5780635338dd731461024b5780636352211e1461026957806370a0823114610299578063715018a6146102c957806378c8cda7146102d357610158565b806301ffc9a71461015d57806306fdde031461018d578063081812fc146101ab578063095ea7b3146101db57806321e07abd146101f757806323b872dd14610213575b600080fd5b61017760048036038101906101729190612aab565b610485565b6040516101849190613108565b60405180910390f35b610195610567565b6040516101a29190613123565b60405180910390f35b6101c560048036038101906101c09190612afd565b6105f9565b6040516101d29190613003565b60405180910390f35b6101f560048036038101906101f09190612a6f565b61067e565b005b610211600480360381019061020c91906129c8565b610796565b005b61022d600480360381019061022891906128c2565b6108dd565b005b610249600480360381019061024491906128c2565b61093d565b005b61025361095d565b60405161026091906133e5565b60405180910390f35b610283600480360381019061027e9190612afd565b610963565b6040516102909190613003565b60405180910390f35b6102b360048036038101906102ae919061285d565b610a15565b6040516102c091906133e5565b60405180910390f35b6102d1610acd565b005b6102ed60048036038101906102e8919061285d565b610b55565b005b6103096004803603810190610304919061285d565b610f0b565b60405161031691906130e6565b60405180910390f35b6103276110dc565b6040516103349190613003565b60405180910390f35b610345611105565b6040516103529190613123565b60405180910390f35b6103756004803603810190610370919061298c565b611197565b005b610391600480360381019061038c9190612911565b611318565b005b61039b61137a565b6040516103a891906133e5565b60405180910390f35b6103cb60048036038101906103c69190612afd565b611380565b6040516103d89190613123565b60405180910390f35b6103e96114d2565b6040516103f691906133e5565b60405180910390f35b61041960048036038101906104149190612886565b6114dc565b6040516104269190613108565b60405180910390f35b6104496004803603810190610444919061285d565b611570565b005b6104656004803603810190610460919061285d565b611668565b005b61046f6118b1565b60405161047c91906130c4565b60405180910390f35b60007f80ac58cd000000000000000000000000000000000000000000000000000000007bffffffffffffffffffffffffffffffffffffffffffffffffffffffff1916827bffffffffffffffffffffffffffffffffffffffffffffffffffffffff1916148061055057507f5b5e139f000000000000000000000000000000000000000000000000000000007bffffffffffffffffffffffffffffffffffffffffffffffffffffffff1916827bffffffffffffffffffffffffffffffffffffffffffffffffffffffff1916145b80610560575061055f826119bb565b5b9050919050565b606060018054610576906136ad565b80601f01602080910402602001604051908101604052809291908181526020018280546105a2906136ad565b80156105ef5780601f106105c4576101008083540402835291602001916105ef565b820191906000526020600020905b8154815290600101906020018083116105d257829003601f168201915b5050505050905090565b600061060482611a25565b610643576040517f08c379a000000000000000000000000000000000000000000000000000000000815260040161063a906132e5565b60405180910390fd5b6005600083815260200190815260200160002060009054906101000a900473ffffffffffffffffffffffffffffffffffffffff169050919050565b600061068982610963565b90508073ffffffffffffffffffffffffffffffffffffffff168373ffffffffffffffffffffffffffffffffffffffff1614156106fa576040517f08c379a00000000000000000000000000000000000000000000000000000000081526004016106f190613365565b60405180910390fd5b8073ffffffffffffffffffffffffffffffffffffffff16610719611a91565b73ffffffffffffffffffffffffffffffffffffffff161480610748575061074781610742611a91565b6114dc565b5b610787576040517f08c379a000000000000000000000000000000000000000000000000000000000815260040161077e90613225565b60405180910390fd5b6107918383611a99565b505050565b600c60003373ffffffffffffffffffffffffffffffffffffffff1673ffffffffffffffffffffffffffffffffffffffff16815260200190815260200160002060000160009054906101000a900460ff16610825576040517f08c379a000000000000000000000000000000000000000000000000000000000815260040161081c906133a5565b60405180910390fd5b61083185600854611b52565b61083d60085485611b70565b600160086000828254610850919061353c565b925050819055508260096000828254610869919061353c565b9250508190555081600a6000828254610882919061353c565b925050819055507f187f4dfea172a3593c9566efe07c3c28a403d32cff4327bb085eb322a05e96b48560016008546108ba91906135c3565b8585856040516108ce95949392919061306a565b60405180910390a15050505050565b6108ee6108e8611a91565b82611be4565b61092d576040517f08c379a000000000000000000000000000000000000000000000000000000000815260040161092490613385565b60405180910390fd5b610938838383611cc2565b505050565b61095883838360405180602001604052806000815250611318565b505050565b60095481565b6000806003600084815260200190815260200160002060009054906101000a900473ffffffffffffffffffffffffffffffffffffffff169050600073ffffffffffffffffffffffffffffffffffffffff168173ffffffffffffffffffffffffffffffffffffffff161415610a0c576040517f08c379a0000000000000000000000000000000000000000000000000000000008152600401610a0390613265565b60405180910390fd5b80915050919050565b60008073ffffffffffffffffffffffffffffffffffffffff168273ffffffffffffffffffffffffffffffffffffffff161415610a86576040517f08c379a0000000000000000000000000000000000000000000000000000000008152600401610a7d90613245565b60405180910390fd5b600460008373ffffffffffffffffffffffffffffffffffffffff1673ffffffffffffffffffffffffffffffffffffffff168152602001908152602001600020549050919050565b610ad5611a91565b73ffffffffffffffffffffffffffffffffffffffff16610af36110dc565b73ffffffffffffffffffffffffffffffffffffffff1614610b49576040517f08c379a0000000000000000000000000000000000000000000000000000000008152600401610b4090613305565b60405180910390fd5b610b536000611f1e565b565b610b5d611a91565b73ffffffffffffffffffffffffffffffffffffffff16610b7b6110dc565b73ffffffffffffffffffffffffffffffffffffffff1614610bd1576040517f08c379a0000000000000000000000000000000000000000000000000000000008152600401610bc890613305565b60405180910390fd5b600c60008273ffffffffffffffffffffffffffffffffffffffff1673ffffffffffffffffffffffffffffffffffffffff16815260200190815260200160002060000160009054906101000a900460ff16610c60576040517f08c379a0000000000000000000000000000000000000000000000000000000008152600401610c5790613145565b60405180910390fd5b600080600090505b600b80549050811015610d24578273ffffffffffffffffffffffffffffffffffffffff16600b8281548110610cc6577f4e487b7100000000000000000000000000000000000000000000000000000000600052603260045260246000fd5b9060005260206000200160009054906101000a900473ffffffffffffffffffffffffffffffffffffffff1673ffffffffffffffffffffffffffffffffffffffff161415610d11578091505b8080610d1c90613710565b915050610c68565b50600b6001600b80549050610d3991906135c3565b81548110610d70577f4e487b7100000000000000000000000000000000000000000000000000000000600052603260045260246000fd5b9060005260206000200160009054906101000a900473ffffffffffffffffffffffffffffffffffffffff16600b8281548110610dd5577f4e487b7100000000000000000000000000000000000000000000000000000000600052603260045260246000fd5b9060005260206000200160006101000a81548173ffffffffffffffffffffffffffffffffffffffff021916908373ffffffffffffffffffffffffffffffffffffffff160217905550600b805480610e55577f4e487b7100000000000000000000000000000000000000000000000000000000600052603160045260246000fd5b6001900381819060005260206000200160006101000a81549073ffffffffffffffffffffffffffffffffffffffff02191690559055600c60008373ffffffffffffffffffffffffffffffffffffffff1673ffffffffffffffffffffffffffffffffffffffff168152602001908152602001600020600080820160006101000a81549060ff02191690556000820160016101000a81549073ffffffffffffffffffffffffffffffffffffffff021916905550505050565b60606000610f1883610a15565b90506000811415610f9b57600067ffffffffffffffff811115610f64577f4e487b7100000000000000000000000000000000000000000000000000000000600052604160045260246000fd5b604051908082528060200260200182016040528015610f925781602001602082028036833780820191505090505b509150506110d7565b6000808267ffffffffffffffff811115610fde577f4e487b7100000000000000000000000000000000000000000000000000000000600052604160045260246000fd5b60405190808252806020026020018201604052801561100c5781602001602082028036833780820191505090505b5090506000600190505b600160085461102591906135c3565b81116110cf578573ffffffffffffffffffffffffffffffffffffffff1661104b82610963565b73ffffffffffffffffffffffffffffffffffffffff1614156110bc57808284815181106110a1577f4e487b7100000000000000000000000000000000000000000000000000000000600052603260045260246000fd5b60200260200101818152505082806110b890613710565b9350505b80806110c790613710565b915050611016565b508093505050505b919050565b60008060009054906101000a900473ffffffffffffffffffffffffffffffffffffffff16905090565b606060028054611114906136ad565b80601f0160208091040260200160405190810160405280929190818152602001828054611140906136ad565b801561118d5780601f106111625761010080835404028352916020019161118d565b820191906000526020600020905b81548152906001019060200180831161117057829003601f168201915b5050505050905090565b61119f611a91565b73ffffffffffffffffffffffffffffffffffffffff168273ffffffffffffffffffffffffffffffffffffffff16141561120d576040517f08c379a0000000000000000000000000000000000000000000000000000000008152600401611204906131e5565b60405180910390fd5b806006600061121a611a91565b73ffffffffffffffffffffffffffffffffffffffff1673ffffffffffffffffffffffffffffffffffffffff16815260200190815260200160002060008473ffffffffffffffffffffffffffffffffffffffff1673ffffffffffffffffffffffffffffffffffffffff16815260200190815260200160002060006101000a81548160ff0219169083151502179055508173ffffffffffffffffffffffffffffffffffffffff166112c7611a91565b73ffffffffffffffffffffffffffffffffffffffff167f17307eab39ab6107e8899845ad3d59bd9653f200f220920489ca2b5937696c318360405161130c9190613108565b60405180910390a35050565b611329611323611a91565b83611be4565b611368576040517f08c379a000000000000000000000000000000000000000000000000000000000815260040161135f90613385565b60405180910390fd5b61137484848484611fe2565b50505050565b600a5481565b606061138b82611a25565b6113ca576040517f08c379a00000000000000000000000000000000000000000000000000000000081526004016113c1906132c5565b60405180910390fd5b60006007600084815260200190815260200160002080546113ea906136ad565b80601f0160208091040260200160405190810160405280929190818152602001828054611416906136ad565b80156114635780601f1061143857610100808354040283529160200191611463565b820191906000526020600020905b81548152906001019060200180831161144657829003601f168201915b50505050509050600061147461203e565b905060008151141561148a5781925050506114cd565b6000825111156114bf5780826040516020016114a7929190612fdf565b604051602081830303815290604052925050506114cd565b6114c884612055565b925050505b919050565b6000600854905090565b6000600660008473ffffffffffffffffffffffffffffffffffffffff1673ffffffffffffffffffffffffffffffffffffffff16815260200190815260200160002060008373ffffffffffffffffffffffffffffffffffffffff1673ffffffffffffffffffffffffffffffffffffffff16815260200190815260200160002060009054906101000a900460ff16905092915050565b611578611a91565b73ffffffffffffffffffffffffffffffffffffffff166115966110dc565b73ffffffffffffffffffffffffffffffffffffffff16146115ec576040517f08c379a00000000000000000000000000000000000000000000000000000000081526004016115e390613305565b60405180910390fd5b600073ffffffffffffffffffffffffffffffffffffffff168173ffffffffffffffffffffffffffffffffffffffff16141561165c576040517f08c379a000000000000000000000000000000000000000000000000000000000815260040161165390613185565b60405180910390fd5b61166581611f1e565b50565b611670611a91565b73ffffffffffffffffffffffffffffffffffffffff1661168e6110dc565b73ffffffffffffffffffffffffffffffffffffffff16146116e4576040517f08c379a00000000000000000000000000000000000000000000000000000000081526004016116db90613305565b60405180910390fd5b600c60008273ffffffffffffffffffffffffffffffffffffffff1673ffffffffffffffffffffffffffffffffffffffff16815260200190815260200160002060000160009054906101000a900460ff1615611774576040517f08c379a000000000000000000000000000000000000000000000000000000000815260040161176b906133c5565b60405180910390fd5b60405180604001604052806001151581526020018273ffffffffffffffffffffffffffffffffffffffff16815250600c60008373ffffffffffffffffffffffffffffffffffffffff1673ffffffffffffffffffffffffffffffffffffffff16815260200190815260200160002060008201518160000160006101000a81548160ff02191690831515021790555060208201518160000160016101000a81548173ffffffffffffffffffffffffffffffffffffffff021916908373ffffffffffffffffffffffffffffffffffffffff160217905550905050600b819080600181540180825580915050600190039060005260206000200160009091909190916101000a81548173ffffffffffffffffffffffffffffffffffffffff021916908373ffffffffffffffffffffffffffffffffffffffff16021790555050565b60606118bb611a91565b73ffffffffffffffffffffffffffffffffffffffff166118d96110dc565b73ffffffffffffffffffffffffffffffffffffffff161461192f576040517f08c379a000000000000000000000000000000000000000000000000000000000815260040161192690613305565b60405180910390fd5b600b8054806020026020016040519081016040528092919081815260200182805480156119b157602002820191906000526020600020905b8160009054906101000a900473ffffffffffffffffffffffffffffffffffffffff1673ffffffffffffffffffffffffffffffffffffffff1681526020019060010190808311611967575b5050505050905090565b60007f01ffc9a7000000000000000000000000000000000000000000000000000000007bffffffffffffffffffffffffffffffffffffffffffffffffffffffff1916827bffffffffffffffffffffffffffffffffffffffffffffffffffffffff1916149050919050565b60008073ffffffffffffffffffffffffffffffffffffffff166003600084815260200190815260200160002060009054906101000a900473ffffffffffffffffffffffffffffffffffffffff1673ffffffffffffffffffffffffffffffffffffffff1614159050919050565b600033905090565b816005600083815260200190815260200160002060006101000a81548173ffffffffffffffffffffffffffffffffffffffff021916908373ffffffffffffffffffffffffffffffffffffffff160217905550808273ffffffffffffffffffffffffffffffffffffffff16611b0c83610963565b73ffffffffffffffffffffffffffffffffffffffff167f8c5be1e5ebec7d5bd14f71427d1e84f3dd0314c0f7b2291e5b200ac8c7c3b92560405160405180910390a45050565b611b6c8282604051806020016040528060008152506120fc565b5050565b611b7982611a25565b611bb8576040517f08c379a0000000000000000000000000000000000000000000000000000000008152600401611baf90613285565b60405180910390fd5b80600760008481526020019081526020016000209080519060200190611bdf929190612681565b505050565b6000611bef82611a25565b611c2e576040517f08c379a0000000000000000000000000000000000000000000000000000000008152600401611c2590613205565b60405180910390fd5b6000611c3983610963565b90508073ffffffffffffffffffffffffffffffffffffffff168473ffffffffffffffffffffffffffffffffffffffff161480611ca857508373ffffffffffffffffffffffffffffffffffffffff16611c90846105f9565b73ffffffffffffffffffffffffffffffffffffffff16145b80611cb95750611cb881856114dc565b5b91505092915050565b8273ffffffffffffffffffffffffffffffffffffffff16611ce282610963565b73ffffffffffffffffffffffffffffffffffffffff1614611d38576040517f08c379a0000000000000000000000000000000000000000000000000000000008152600401611d2f90613325565b60405180910390fd5b600073ffffffffffffffffffffffffffffffffffffffff168273ffffffffffffffffffffffffffffffffffffffff161415611da8576040517f08c379a0000000000000000000000000000000000000000000000000000000008152600401611d9f906131c5565b60405180910390fd5b611db3838383612157565b611dbe600082611a99565b6001600460008573ffffffffffffffffffffffffffffffffffffffff1673ffffffffffffffffffffffffffffffffffffffff1681526020019081526020016000206000828254611e0e91906135c3565b925050819055506001600460008473ffffffffffffffffffffffffffffffffffffffff1673ffffffffffffffffffffffffffffffffffffffff1681526020019081526020016000206000828254611e65919061353c565b92505081905550816003600083815260200190815260200160002060006101000a81548173ffffffffffffffffffffffffffffffffffffffff021916908373ffffffffffffffffffffffffffffffffffffffff160217905550808273ffffffffffffffffffffffffffffffffffffffff168473ffffffffffffffffffffffffffffffffffffffff167fddf252ad1be2c89b69c2b068fc378daa952ba7f163c4a11628f55a4df523b3ef60405160405180910390a4505050565b60008060009054906101000a900473ffffffffffffffffffffffffffffffffffffffff169050816000806101000a81548173ffffffffffffffffffffffffffffffffffffffff021916908373ffffffffffffffffffffffffffffffffffffffff1602179055508173ffffffffffffffffffffffffffffffffffffffff168173ffffffffffffffffffffffffffffffffffffffff167f8be0079c531659141344cd1fd0a4f28419497f9722a3daafe3b4186f6b6457e060405160405180910390a35050565b611fed848484611cc2565b611ff98484848461215c565b612038576040517f08c379a000000000000000000000000000000000000000000000000000000000815260040161202f90613165565b60405180910390fd5b50505050565b606060405180602001604052806000815250905090565b606061206082611a25565b61209f576040517f08c379a000000000000000000000000000000000000000000000000000000000815260040161209690613345565b60405180910390fd5b60006120a961203e565b905060008151116120c957604051806020016040528060008152506120f4565b806120d3846122f3565b6040516020016120e4929190612fdf565b6040516020818303038152906040525b915050919050565b61210683836124a0565b612113600084848461215c565b612152576040517f08c379a000000000000000000000000000000000000000000000000000000000815260040161214990613165565b60405180910390fd5b505050565b505050565b600061217d8473ffffffffffffffffffffffffffffffffffffffff1661266e565b156122e6578373ffffffffffffffffffffffffffffffffffffffff1663150b7a026121a6611a91565b8786866040518563ffffffff1660e01b81526004016121c8949392919061301e565b602060405180830381600087803b1580156121e257600080fd5b505af192505050801561221357506040513d601f19601f820116820180604052508101906122109190612ad4565b60015b612296573d8060008114612243576040519150601f19603f3d011682016040523d82523d6000602084013e612248565b606091505b5060008151141561228e576040517f08c379a000000000000000000000000000000000000000000000000000000000815260040161228590613165565b60405180910390fd5b805181602001fd5b63150b7a0260e01b7bffffffffffffffffffffffffffffffffffffffffffffffffffffffff1916817bffffffffffffffffffffffffffffffffffffffffffffffffffffffff1916149150506122eb565b600190505b949350505050565b6060600082141561233b576040518060400160405280600181526020017f3000000000000000000000000000000000000000000000000000000000000000815250905061249b565b600082905060005b6000821461236d57808061235690613710565b915050600a826123669190613592565b9150612343565b60008167ffffffffffffffff8111156123af577f4e487b7100000000000000000000000000000000000000000000000000000000600052604160045260246000fd5b6040519080825280601f01601f1916602001820160405280156123e15781602001600182028036833780820191505090505b5090505b60008514612494576001826123fa91906135c3565b9150600a856124099190613759565b6030612415919061353c565b60f81b818381518110612451577f4e487b7100000000000000000000000000000000000000000000000000000000600052603260045260246000fd5b60200101907effffffffffffffffffffffffffffffffffffffffffffffffffffffffffffff1916908160001a905350600a8561248d9190613592565b94506123e5565b8093505050505b919050565b600073ffffffffffffffffffffffffffffffffffffffff168273ffffffffffffffffffffffffffffffffffffffff161415612510576040517f08c379a0000000000000000000000000000000000000000000000000000000008152600401612507906132a5565b60405180910390fd5b61251981611a25565b15612559576040517f08c379a0000000000000000000000000000000000000000000000000000000008152600401612550906131a5565b60405180910390fd5b61256560008383612157565b6001600460008473ffffffffffffffffffffffffffffffffffffffff1673ffffffffffffffffffffffffffffffffffffffff16815260200190815260200160002060008282546125b5919061353c565b92505081905550816003600083815260200190815260200160002060006101000a81548173ffffffffffffffffffffffffffffffffffffffff021916908373ffffffffffffffffffffffffffffffffffffffff160217905550808273ffffffffffffffffffffffffffffffffffffffff16600073ffffffffffffffffffffffffffffffffffffffff167fddf252ad1be2c89b69c2b068fc378daa952ba7f163c4a11628f55a4df523b3ef60405160405180910390a45050565b600080823b905060008111915050919050565b82805461268d906136ad565b90600052602060002090601f0160209004810192826126af57600085556126f6565b82601f106126c857805160ff19168380011785556126f6565b828001600101855582156126f6579182015b828111156126f55782518255916020019190600101906126da565b5b5090506127039190612707565b5090565b5b80821115612720576000816000905550600101612708565b5090565b600061273761273284613425565b613400565b90508281526020810184848401111561274f57600080fd5b61275a84828561366b565b509392505050565b600061277561277084613456565b613400565b90508281526020810184848401111561278d57600080fd5b61279884828561366b565b509392505050565b6000813590506127af81613e14565b92915050565b6000813590506127c481613e2b565b92915050565b6000813590506127d981613e42565b92915050565b6000815190506127ee81613e42565b92915050565b600082601f83011261280557600080fd5b8135612815848260208601612724565b91505092915050565b600082601f83011261282f57600080fd5b813561283f848260208601612762565b91505092915050565b60008135905061285781613e59565b92915050565b60006020828403121561286f57600080fd5b600061287d848285016127a0565b91505092915050565b6000806040838503121561289957600080fd5b60006128a7858286016127a0565b92505060206128b8858286016127a0565b9150509250929050565b6000806000606084860312156128d757600080fd5b60006128e5868287016127a0565b93505060206128f6868287016127a0565b925050604061290786828701612848565b9150509250925092565b6000806000806080858703121561292757600080fd5b6000612935878288016127a0565b9450506020612946878288016127a0565b935050604061295787828801612848565b925050606085013567ffffffffffffffff81111561297457600080fd5b612980878288016127f4565b91505092959194509250565b6000806040838503121561299f57600080fd5b60006129ad858286016127a0565b92505060206129be858286016127b5565b9150509250929050565b600080600080600060a086880312156129e057600080fd5b60006129ee888289016127a0565b955050602086013567ffffffffffffffff811115612a0b57600080fd5b612a178882890161281e565b9450506040612a2888828901612848565b9350506060612a3988828901612848565b925050608086013567ffffffffffffffff811115612a5657600080fd5b612a628882890161281e565b9150509295509295909350565b60008060408385031215612a8257600080fd5b6000612a90858286016127a0565b9250506020612aa185828601612848565b9150509250929050565b600060208284031215612abd57600080fd5b6000612acb848285016127ca565b91505092915050565b600060208284031215612ae657600080fd5b6000612af4848285016127df565b91505092915050565b600060208284031215612b0f57600080fd5b6000612b1d84828501612848565b91505092915050565b6000612b328383612b56565b60208301905092915050565b6000612b4a8383612fc1565b60208301905092915050565b612b5f816135f7565b82525050565b612b6e816135f7565b82525050565b6000612b7f826134a7565b612b8981856134ed565b9350612b9483613487565b8060005b83811015612bc5578151612bac8882612b26565b9750612bb7836134d3565b925050600181019050612b98565b5085935050505092915050565b6000612bdd826134b2565b612be781856134fe565b9350612bf283613497565b8060005b83811015612c23578151612c0a8882612b3e565b9750612c15836134e0565b925050600181019050612bf6565b5085935050505092915050565b612c3981613609565b82525050565b6000612c4a826134bd565b612c54818561350f565b9350612c6481856020860161367a565b612c6d81613846565b840191505092915050565b6000612c83826134c8565b612c8d8185613520565b9350612c9d81856020860161367a565b612ca681613846565b840191505092915050565b6000612cbc826134c8565b612cc68185613531565b9350612cd681856020860161367a565b80840191505092915050565b6000612cef602183613520565b9150612cfa82613857565b604082019050919050565b6000612d12603283613520565b9150612d1d826138a6565b604082019050919050565b6000612d35602683613520565b9150612d40826138f5565b604082019050919050565b6000612d58601c83613520565b9150612d6382613944565b602082019050919050565b6000612d7b602483613520565b9150612d868261396d565b604082019050919050565b6000612d9e601983613520565b9150612da9826139bc565b602082019050919050565b6000612dc1602c83613520565b9150612dcc826139e5565b604082019050919050565b6000612de4603883613520565b9150612def82613a34565b604082019050919050565b6000612e07602a83613520565b9150612e1282613a83565b604082019050919050565b6000612e2a602983613520565b9150612e3582613ad2565b604082019050919050565b6000612e4d602e83613520565b9150612e5882613b21565b604082019050919050565b6000612e70602083613520565b9150612e7b82613b70565b602082019050919050565b6000612e93603183613520565b9150612e9e82613b99565b604082019050919050565b6000612eb6602c83613520565b9150612ec182613be8565b604082019050919050565b6000612ed9602083613520565b9150612ee482613c37565b602082019050919050565b6000612efc602983613520565b9150612f0782613c60565b604082019050919050565b6000612f1f602f83613520565b9150612f2a82613caf565b604082019050919050565b6000612f42602183613520565b9150612f4d82613cfe565b604082019050919050565b6000612f65603183613520565b9150612f7082613d4d565b604082019050919050565b6000612f88602c83613520565b9150612f9382613d9c565b604082019050919050565b6000612fab601d83613520565b9150612fb682613deb565b602082019050919050565b612fca81613661565b82525050565b612fd981613661565b82525050565b6000612feb8285612cb1565b9150612ff78284612cb1565b91508190509392505050565b60006020820190506130186000830184612b65565b92915050565b60006080820190506130336000830187612b65565b6130406020830186612b65565b61304d6040830185612fd0565b818103606083015261305f8184612c3f565b905095945050505050565b600060a08201905061307f6000830188612b65565b61308c6020830187612fd0565b6130996040830186612fd0565b6130a66060830185612fd0565b81810360808301526130b88184612c78565b90509695505050505050565b600060208201905081810360008301526130de8184612b74565b905092915050565b600060208201905081810360008301526131008184612bd2565b905092915050565b600060208201905061311d6000830184612c30565b92915050565b6000602082019050818103600083015261313d8184612c78565b905092915050565b6000602082019050818103600083015261315e81612ce2565b9050919050565b6000602082019050818103600083015261317e81612d05565b9050919050565b6000602082019050818103600083015261319e81612d28565b9050919050565b600060208201905081810360008301526131be81612d4b565b9050919050565b600060208201905081810360008301526131de81612d6e565b9050919050565b600060208201905081810360008301526131fe81612d91565b9050919050565b6000602082019050818103600083015261321e81612db4565b9050919050565b6000602082019050818103600083015261323e81612dd7565b9050919050565b6000602082019050818103600083015261325e81612dfa565b9050919050565b6000602082019050818103600083015261327e81612e1d565b9050919050565b6000602082019050818103600083015261329e81612e40565b9050919050565b600060208201905081810360008301526132be81612e63565b9050919050565b600060208201905081810360008301526132de81612e86565b9050919050565b600060208201905081810360008301526132fe81612ea9565b9050919050565b6000602082019050818103600083015261331e81612ecc565b9050919050565b6000602082019050818103600083015261333e81612eef565b9050919050565b6000602082019050818103600083015261335e81612f12565b9050919050565b6000602082019050818103600083015261337e81612f35565b9050919050565b6000602082019050818103600083015261339e81612f58565b9050919050565b600060208201905081810360008301526133be81612f7b565b9050919050565b600060208201905081810360008301526133de81612f9e565b9050919050565b60006020820190506133fa6000830184612fd0565b92915050565b600061340a61341b565b905061341682826136df565b919050565b6000604051905090565b600067ffffffffffffffff8211156134405761343f613817565b5b61344982613846565b9050602081019050919050565b600067ffffffffffffffff82111561347157613470613817565b5b61347a82613846565b9050602081019050919050565b6000819050602082019050919050565b6000819050602082019050919050565b600081519050919050565b600081519050919050565b600081519050919050565b600081519050919050565b6000602082019050919050565b6000602082019050919050565b600082825260208201905092915050565b600082825260208201905092915050565b600082825260208201905092915050565b600082825260208201905092915050565b600081905092915050565b600061354782613661565b915061355283613661565b9250827fffffffffffffffffffffffffffffffffffffffffffffffffffffffffffffffff038211156135875761358661378a565b5b828201905092915050565b600061359d82613661565b91506135a883613661565b9250826135b8576135b76137b9565b5b828204905092915050565b60006135ce82613661565b91506135d983613661565b9250828210156135ec576135eb61378a565b5b828203905092915050565b600061360282613641565b9050919050565b60008115159050919050565b60007fffffffff0000000000000000000000000000000000000000000000000000000082169050919050565b600073ffffffffffffffffffffffffffffffffffffffff82169050919050565b6000819050919050565b82818337600083830152505050565b60005b8381101561369857808201518184015260208101905061367d565b838111156136a7576000848401525b50505050565b600060028204905060018216806136c557607f821691505b602082108114156136d9576136d86137e8565b5b50919050565b6136e882613846565b810181811067ffffffffffffffff8211171561370757613706613817565b5b80604052505050565b600061371b82613661565b91507fffffffffffffffffffffffffffffffffffffffffffffffffffffffffffffffff82141561374e5761374d61378a565b5b600182019050919050565b600061376482613661565b915061376f83613661565b92508261377f5761377e6137b9565b5b828206905092915050565b7f4e487b7100000000000000000000000000000000000000000000000000000000600052601160045260246000fd5b7f4e487b7100000000000000000000000000000000000000000000000000000000600052601260045260246000fd5b7f4e487b7100000000000000000000000000000000000000000000000000000000600052602260045260246000fd5b7f4e487b7100000000000000000000000000000000000000000000000000000000600052604160045260246000fd5b6000601f19601f8301169050919050565b7f4e6f7420612076616c69642077686974656c697374656420636f6e747261637460008201527f2e00000000000000000000000000000000000000000000000000000000000000602082015250565b7f4552433732313a207472616e7366657220746f206e6f6e20455243373231526560008201527f63656976657220696d706c656d656e7465720000000000000000000000000000602082015250565b7f4f776e61626c653a206e6577206f776e657220697320746865207a65726f206160008201527f6464726573730000000000000000000000000000000000000000000000000000602082015250565b7f4552433732313a20746f6b656e20616c7265616479206d696e74656400000000600082015250565b7f4552433732313a207472616e7366657220746f20746865207a65726f2061646460008201527f7265737300000000000000000000000000000000000000000000000000000000602082015250565b7f4552433732313a20617070726f766520746f2063616c6c657200000000000000600082015250565b7f4552433732313a206f70657261746f7220717565727920666f72206e6f6e657860008201527f697374656e7420746f6b656e0000000000000000000000000000000000000000602082015250565b7f4552433732313a20617070726f76652063616c6c6572206973206e6f74206f7760008201527f6e6572206e6f7220617070726f76656420666f7220616c6c0000000000000000602082015250565b7f4552433732313a2062616c616e636520717565727920666f7220746865207a6560008201527f726f206164647265737300000000000000000000000000000000000000000000602082015250565b7f4552433732313a206f776e657220717565727920666f72206e6f6e657869737460008201527f656e7420746f6b656e0000000000000000000000000000000000000000000000602082015250565b7f45524337323155524953746f726167653a2055524920736574206f66206e6f6e60008201527f6578697374656e7420746f6b656e000000000000000000000000000000000000602082015250565b7f4552433732313a206d696e7420746f20746865207a65726f2061646472657373600082015250565b7f45524337323155524953746f726167653a2055524920717565727920666f722060008201527f6e6f6e6578697374656e7420746f6b656e000000000000000000000000000000602082015250565b7f4552433732313a20617070726f76656420717565727920666f72206e6f6e657860008201527f697374656e7420746f6b656e0000000000000000000000000000000000000000602082015250565b7f4f776e61626c653a2063616c6c6572206973206e6f7420746865206f776e6572600082015250565b7f4552433732313a207472616e73666572206f6620746f6b656e2074686174206960008201527f73206e6f74206f776e0000000000000000000000000000000000000000000000602082015250565b7f4552433732314d657461646174613a2055524920717565727920666f72206e6f60008201527f6e6578697374656e7420746f6b656e0000000000000000000000000000000000602082015250565b7f4552433732313a20617070726f76616c20746f2063757272656e74206f776e6560008201527f7200000000000000000000000000000000000000000000000000000000000000602082015250565b7f4552433732313a207472616e736665722063616c6c6572206973206e6f74206f60008201527f776e6572206e6f7220617070726f766564000000000000000000000000000000602082015250565b7f4f6e6c792077686974656c6973746564206164647265737365732063616e206d60008201527f696e74204e4654726565732e0000000000000000000000000000000000000000602082015250565b7f436f6e747261637420616c72656164792077686974656c69737465642e000000600082015250565b613e1d816135f7565b8114613e2857600080fd5b50565b613e3481613609565b8114613e3f57600080fd5b50565b613e4b81613615565b8114613e5657600080fd5b50565b613e6281613661565b8114613e6d57600080fd5b5056fea2646970667358221220615336eddf5a22931bd937d6a6903e143b20d0283f0d3953ba995870f611d32c64736f6c63430008040033",
  "linkReferences": {},
  "deployedLinkReferences": {}
}